{
  "contractName": "CMContract",
  "abi": [
    {
      "inputs": [],
      "payable": false,
      "stateMutability": "nonpayable",
      "type": "constructor"
    },
    {
      "constant": false,
      "inputs": [
        {
          "name": "ipfs_address",
          "type": "string"
        },
        {
          "name": "id_in_server",
          "type": "string"
        },
        {
          "name": "cp_hash",
          "type": "string"
        },
        {
          "name": "owner",
          "type": "address"
        },
        {
          "name": "share_integer",
          "type": "uint256"
        },
        {
          "name": "share_decimals",
          "type": "uint256"
        }
      ],
      "name": "update_copyright",
      "outputs": [
        {
          "name": "",
          "type": "bool"
        }
      ],
      "payable": false,
      "stateMutability": "nonpayable",
      "type": "function"
    },
    {
      "constant": false,
      "inputs": [
        {
          "name": "id_in_server",
          "type": "string"
        }
      ],
      "name": "delete_copyright",
      "outputs": [
        {
          "name": "",
          "type": "bool"
        }
      ],
      "payable": false,
      "stateMutability": "nonpayable",
      "type": "function"
    },
    {
      "constant": true,
      "inputs": [
        {
          "name": "id_in_server",
          "type": "string"
        },
        {
          "name": "owner",
          "type": "address"
        }
      ],
      "name": "get_copyright_share",
      "outputs": [
        {
          "name": "",
          "type": "uint256"
        },
        {
          "name": "",
          "type": "uint256"
        },
        {
          "name": "",
          "type": "bool"
        }
      ],
      "payable": false,
      "stateMutability": "view",
      "type": "function"
    },
    {
      "constant": true,
      "inputs": [
        {
          "name": "_user",
          "type": "address"
        }
      ],
      "name": "balance_of",
      "outputs": [
        {
          "name": "balance",
          "type": "uint256"
        }
      ],
      "payable": false,
      "stateMutability": "view",
      "type": "function"
    },
    {
      "constant": false,
      "inputs": [
        {
          "name": "_from",
          "type": "address"
        },
        {
          "name": "_to",
          "type": "address"
        },
        {
          "name": "_value",
          "type": "uint256"
        }
      ],
      "name": "transfer",
      "outputs": [
        {
          "name": "",
          "type": "bool"
        }
      ],
      "payable": false,
      "stateMutability": "nonpayable",
      "type": "function"
    },
    {
      "constant": false,
      "inputs": [
        {
          "name": "_to",
          "type": "address"
        },
        {
          "name": "_value",
          "type": "uint256"
        }
      ],
      "name": "generate_token",
      "outputs": [
        {
          "name": "",
          "type": "bool"
        }
      ],
      "payable": false,
      "stateMutability": "nonpayable",
      "type": "function"
    }
  ],
  "bytecode": "0x60606040526000600460006101000a81548173ffffffffffffffffffffffffffffffffffffffff021916908373ffffffffffffffffffffffffffffffffffffffff160217905550341561005157600080fd5b336000806101000a81548173ffffffffffffffffffffffffffffffffffffffff021916908373ffffffffffffffffffffffffffffffffffffffff16021790555061110e806100a06000396000f300606060405260043610610078576000357c0100000000000000000000000000000000000000000000000000000000900463ffffffff168063534286db1461007d5780635da0c5311461011f578063b144adfb14610179578063beabacc8146101c6578063c58c3cd71461023f578063dfd51b56146102b4575b600080fd5b341561008857600080fd5b6100f7600480803590602001908201803590602001908080601f0160208091040260200160405190810160405280939291908181526020018383808284378201915050505050509190803573ffffffffffffffffffffffffffffffffffffffff169060200190919050506103e0565b6040518084815260200183815260200182151515158152602001935050505060405180910390f35b341561012a57600080fd5b61015f600480803573ffffffffffffffffffffffffffffffffffffffff169060200190919080359060200190919050506105f4565b604051808215151515815260200191505060405180910390f35b341561018457600080fd5b6101b0600480803573ffffffffffffffffffffffffffffffffffffffff169060200190919050506106f0565b6040518082815260200191505060405180910390f35b34156101d157600080fd5b610225600480803573ffffffffffffffffffffffffffffffffffffffff1690602001909190803573ffffffffffffffffffffffffffffffffffffffff16906020019091908035906020019091905050610739565b604051808215151515815260200191505060405180910390f35b341561024a57600080fd5b61029a600480803590602001908201803590602001908080601f016020809104026020016040519081016040528093929190818152602001838380828437820191505050505050919050506108f9565b604051808215151515815260200191505060405180910390f35b34156102bf57600080fd5b6103c6600480803590602001908201803590602001908080601f0160208091040260200160405190810160405280939291908181526020018383808284378201915050505050509190803590602001908201803590602001908080601f0160208091040260200160405190810160405280939291908181526020018383808284378201915050505050509190803590602001908201803590602001908080601f0160208091040260200160405190810160405280939291908181526020018383808284378201915050505050509190803573ffffffffffffffffffffffffffffffffffffffff16906020019091908035906020019091908035906020019091905050610a0e565b604051808215151515815260200191505060405180910390f35b600080600080600115156002876040518082805190602001908083835b60208310151561042257805182526020820191506020810190506020830392506103fd565b6001836020036101000a038019825116818451168082178552505050505050905001915050908152602001604051809103902060009054906101000a900460ff16151514156105da576003866040518082805190602001908083835b6020831015156104a3578051825260208201915060208101905060208303925061047e565b6001836020036101000a03801982511681845116808217855250505050505090500191505090815260200160405180910390209050600115158160030160008773ffffffffffffffffffffffffffffffffffffffff1673ffffffffffffffffffffffffffffffffffffffff16815260200190815260200160002060009054906101000a900460ff16151514156105c4578060050160008673ffffffffffffffffffffffffffffffffffffffff1673ffffffffffffffffffffffffffffffffffffffff168152602001908152602001600020548160060160008773ffffffffffffffffffffffffffffffffffffffff1673ffffffffffffffffffffffffffffffffffffffff1681526020019081526020016000205460019350935093506105ec565b60008060018292508191509350935093506105ec565b60008060008292508191509350935093505b509250925092565b60008060009054906101000a900473ffffffffffffffffffffffffffffffffffffffff1673ffffffffffffffffffffffffffffffffffffffff163373ffffffffffffffffffffffffffffffffffffffff1614151561065157600080fd5b6106a382600160008673ffffffffffffffffffffffffffffffffffffffff1673ffffffffffffffffffffffffffffffffffffffff16815260200190815260200160002054610fda90919063ffffffff16565b600160008573ffffffffffffffffffffffffffffffffffffffff1673ffffffffffffffffffffffffffffffffffffffff168152602001908152602001600020819055506001905092915050565b6000600160008373ffffffffffffffffffffffffffffffffffffffff1673ffffffffffffffffffffffffffffffffffffffff168152602001908152602001600020549050919050565b60008073ffffffffffffffffffffffffffffffffffffffff168373ffffffffffffffffffffffffffffffffffffffff161415151561077657600080fd5b600160008573ffffffffffffffffffffffffffffffffffffffff1673ffffffffffffffffffffffffffffffffffffffff1681526020019081526020016000205482111515156107c457600080fd5b61081682600160008773ffffffffffffffffffffffffffffffffffffffff1673ffffffffffffffffffffffffffffffffffffffff16815260200190815260200160002054610ff890919063ffffffff16565b600160008673ffffffffffffffffffffffffffffffffffffffff1673ffffffffffffffffffffffffffffffffffffffff168152602001908152602001600020819055506108ab82600160008673ffffffffffffffffffffffffffffffffffffffff1673ffffffffffffffffffffffffffffffffffffffff16815260200190815260200160002054610fda90919063ffffffff16565b600160008573ffffffffffffffffffffffffffffffffffffffff1673ffffffffffffffffffffffffffffffffffffffff16815260200190815260200160002081905550600190509392505050565b6000600115156002836040518082805190602001908083835b6020831015156109375780518252602082019150602081019050602083039250610912565b6001836020036101000a038019825116818451168082178552505050505050905001915050908152602001604051809103902060009054906101000a900460ff1615151415610a055760006002836040518082805190602001908083835b6020831015156109ba5780518252602082019150602081019050602083039250610995565b6001836020036101000a038019825116818451168082178552505050505050905001915050908152602001604051809103902060006101000a81548160ff0219169083151502179055505b60019050919050565b6000806003876040518082805190602001908083835b602083101515610a495780518252602082019150602081019050602083039250610a24565b6001836020036101000a0380198251168184511680821785525050505050509050019150509081526020016040518091039020905087816000019080519060200190610a96929190611011565b5086816001019080519060200190610aaf929190611011565b5085816002019080519060200190610ac8929190611011565b50600015156002886040518082805190602001908083835b602083101515610b055780518252602082019150602081019050602083039250610ae0565b6001836020036101000a038019825116818451168082178552505050505050905001915050908152602001604051809103902060009054906101000a900460ff1615151415610d225760018160030160008773ffffffffffffffffffffffffffffffffffffffff1673ffffffffffffffffffffffffffffffffffffffff16815260200190815260200160002060006101000a81548160ff021916908315150217905550806004018054806001018281610bbe9190611091565b9160005260206000209001600087909190916101000a81548173ffffffffffffffffffffffffffffffffffffffff021916908373ffffffffffffffffffffffffffffffffffffffff16021790555050838160050160008773ffffffffffffffffffffffffffffffffffffffff1673ffffffffffffffffffffffffffffffffffffffff16815260200190815260200160002081905550828160060160008773ffffffffffffffffffffffffffffffffffffffff1673ffffffffffffffffffffffffffffffffffffffff1681526020019081526020016000208190555060016002886040518082805190602001908083835b602083101515610cd35780518252602082019150602081019050602083039250610cae565b6001836020036101000a038019825116818451168082178552505050505050905001915050908152602001604051809103902060006101000a81548160ff021916908315150217905550610fcb565b600115158160030160008773ffffffffffffffffffffffffffffffffffffffff1673ffffffffffffffffffffffffffffffffffffffff16815260200190815260200160002060009054906101000a900460ff1615151415610e7e57838160050160008773ffffffffffffffffffffffffffffffffffffffff1673ffffffffffffffffffffffffffffffffffffffff16815260200190815260200160002081905550828160060160008773ffffffffffffffffffffffffffffffffffffffff1673ffffffffffffffffffffffffffffffffffffffff16815260200190815260200160002081905550600084148015610e195750600083145b15610e795760008160030160008773ffffffffffffffffffffffffffffffffffffffff1673ffffffffffffffffffffffffffffffffffffffff16815260200190815260200160002060006101000a81548160ff0219169083151502179055505b610fca565b60018160030160008773ffffffffffffffffffffffffffffffffffffffff1673ffffffffffffffffffffffffffffffffffffffff16815260200190815260200160002060006101000a81548160ff021916908315150217905550806004018054806001018281610eee9190611091565b9160005260206000209001600087909190916101000a81548173ffffffffffffffffffffffffffffffffffffffff021916908373ffffffffffffffffffffffffffffffffffffffff16021790555050838160050160008773ffffffffffffffffffffffffffffffffffffffff1673ffffffffffffffffffffffffffffffffffffffff16815260200190815260200160002081905550828160060160008773ffffffffffffffffffffffffffffffffffffffff1673ffffffffffffffffffffffffffffffffffffffff168152602001908152602001600020819055505b5b60019150509695505050505050565b6000808284019050838110151515610fee57fe5b8091505092915050565b600082821115151561100657fe5b818303905092915050565b828054600181600116156101000203166002900490600052602060002090601f016020900481019282601f1061105257805160ff1916838001178555611080565b82800160010185558215611080579182015b8281111561107f578251825591602001919060010190611064565b5b50905061108d91906110bd565b5090565b8154818355818115116110b8578183600052602060002091820191016110b791906110bd565b5b505050565b6110df91905b808211156110db5760008160009055506001016110c3565b5090565b905600a165627a7a723058209b7f2a69bcdd136a50de53eea2f5f918e7f697713f342be7ca7d938b10d251830029",
  "source": "pragma solidity ^0.4.0;\n\nimport 'zeppelin-solidity/contracts/math/SafeMath.sol';\n\ncontract CMContract {\n    using SafeMath for uint256;\n\n    address private creator; // the creator\n    mapping(address => uint256) balances; // token\n    mapping(string => bool) copyrights_keys; // keys for copyrights\n    mapping(string => CopyRight) copyrights; // copyrights  {id_in_server : CopyRight}\n    address private zero_address = 0x0000000000000000000000000000000000000000;\n\n    // copy right\n    struct CopyRight {\n        string ipfs_address; //ipfs hash address\n        string id_in_server; // id of this IP in internal server database\n        string cp_hash; //\n        mapping(address => bool) owners_keys;\n        address[] owners_addresses;\n        mapping(address => uint256) owners_integer;\n        mapping(address => uint256) owners_decimals;\n    }\n\n    // init\n    function CMContract() public {\n        creator = msg.sender;\n    }\n\n    // update a copyright\n    function update_copyright(string ipfs_address, string id_in_server,string cp_hash, address owner, uint256 share_integer, uint256 share_decimals) public returns (bool) {\n\n        CopyRight storage cp = copyrights[id_in_server];\n        cp.ipfs_address = ipfs_address;\n        cp.id_in_server = id_in_server;\n        cp.cp_hash = cp_hash;\n\n        if (copyrights_keys[id_in_server] == false) {\n            // new ip\n            cp.owners_keys[owner] = true;\n            cp.owners_addresses.push(owner);\n            cp.owners_integer[owner] = share_integer;\n            cp.owners_decimals[owner] = share_decimals;\n\n            copyrights_keys[id_in_server] = true;\n\n        } else {\n\n            // if owner exits\n            if (cp.owners_keys[owner] == true) {\n                // update share\n                cp.owners_integer[owner] = share_integer;\n                cp.owners_decimals[owner] = share_decimals;\n                if (share_integer == 0 && share_decimals == 0) {\n                    cp.owners_keys[owner] = false;\n                }\n            } else {\n                // push a new owner\n                cp.owners_keys[owner] = true;\n                cp.owners_addresses.push(owner);\n                cp.owners_integer[owner] = share_integer;\n                cp.owners_decimals[owner] = share_decimals;\n            }\n        }\n        return true;\n    }\n\n    // delete a copyright\n    function delete_copyright(string id_in_server) public returns (bool){\n        if (copyrights_keys[id_in_server] == true) {\n            copyrights_keys[id_in_server] = false;\n        }\n        return true;\n    }\n\n    // id_in_server : id of this IP in internal server database\n    function get_copyright_share(string id_in_server, address owner) public view returns (uint256, uint256, bool) {\n        if (copyrights_keys[id_in_server] == true) {\n            CopyRight storage cp = copyrights[id_in_server];\n            if (cp.owners_keys[owner] == true) {\n                return (cp.owners_integer[owner], cp.owners_decimals[owner],true);\n            } else {\n                return (0,0,true);\n            }\n        } else {\n            return (0,0,false);\n        }\n    }\n\n    // get balance\n    function balance_of(address _user) public view returns (uint256 balance) {\n        return balances[_user];\n    }\n    // transfer token from a to b\n    function transfer(address _from, address _to, uint256 _value) public returns (bool) {\n        require(_to != address(0));\n        require(_value <= balances[_from]);\n        // SafeMath.sub will throw if there is not enough balance.\n        balances[_from] = balances[_from].sub(_value);\n        balances[_to] = balances[_to].add(_value);\n        return true;\n    }\n\n    // *** only creator can use the functions below ***\n    // generate token for users\n    function generate_token (address _to, uint256 _value) public returns (bool) {\n        require(msg.sender == creator);\n        balances[_to] = balances[_to].add(_value);\n        return true;\n    }\n\n    // *** tools ***\n    // string a equal to string b ？\n    function string_equal_to(string _a, string _b) private pure returns (bool) {\n        if (keccak256(_a) == keccak256(_b)) {\n            return true;\n        }\n        return false;\n    }\n}\n",
  "sourcePath": "/Users/jimmy/Documents/CMBlock/CMContract/contracts/CMContract.sol",
  "compiler": {
    "name": "solc",
    "version": "0.4.19+commit.c4cbbb05.Emscripten.clang"
  },
  "schemaVersion": "2.0.0",
  "updatedAt": "2018-03-30T06:44:28.435Z"
}